:020000040800F2
:1000000080060020CD0100087B0A00088306000856
:10001000D909000887020008150E0008000000003A
:10002000000000000000000000000000290B000894
:100030002504000800000000F50A0008050C00086F
:10004000E7010008E7010008E7010008E7010008F0
:10005000E7010008E7010008E7010008E7010008E0
:10006000E7010008E7010008E7010008E7010008D0
:10007000E7010008E7010008E7010008E7010008C0
:10008000E7010008E7010008E7010008E7010008B0
:10009000E7010008E7010008E7010008E7010008A0
:1000A000E7010008E7010008E7010008E701000890
:1000B000490C0008E7010008E7010008E701000813
:1000C000E7010008E7010008E7010008E701000870
:1000D000E7010008E7010008E7010008E701000860
:1000E000AB040008E7010008E7010008E701000889
:1000F000E7010008E7010008E7010008E701000840
:10010000E7010008E7010008E7010008E70100082F
:10011000E7010008E7010008E7010008E70100081F
:10012000E7010008E7010008E7010008E70100080F
:1001300000F002F800F03AF80AA090E8000C8244BF
:100140008344AAF10107DA4501D100F02FF8AFF29C
:10015000090EBAE80F0013F0010F18BFFB1A43F0A5
:1001600001031847C0120000E0120000103A24BF3B
:1001700078C878C1FAD8520724BF30C830C144BF0C
:1001800004680C607047000000230024002500264E
:10019000103A28BF78C1FBD8520728BF30C148BFEA
:1001A0000B6070471FB51FBD10B510BD00F031F8D2
:1001B0001146FFF7F7FF00F08BFE00F04FF803B495
:1001C000FFF7F2FF03BC00F057F800000948804732
:1001D00009480047FEE7FEE7FEE7FEE7FEE7FEE729
:1001E000FEE7FEE7FEE7FEE704480549054A064B41
:1001F00070470000090C0008310100088000002051
:100200008006002080020020800200207047704796
:100210007047754600F02CF8AE4605006946534617
:1002200020F00700854618B020B5FFF7DDFFBDE8D8
:1002300020404FF000064FF000074FF000084FF04D
:10024000000B21F00701AC46ACE8C009ACE8C009DE
:10025000ACE8C009ACE8C0098D46704710B504464B
:10026000AFF300802046BDE81040FFF7A8BF0000B4
:10027000004870472000002001491820ABBEFEE76F
:10028000260002007047FEE703496FF02700087060
:100290000249087070470000050000200600002099
:1002A00002492820087002490870704705000020A4
:1002B00006000020024914200870024908707047A7
:1002C00005000020060000200349002008700349B3
:1002D000282008707047000005000020060000205C
:1002E0000349EC200870034914200870704700008F
:1002F0000500002006000020034900200870034983
:10030000142008707047000005000020060000203F
:100310002DE9F041284D1021284600F0B0F90421C4
:10032000284600F0ACF92548E914264C90F9002045
:100330002348002A1BDD2368934202D200F09FF974
:1003400001E000F09AF90121284600F096F91E48D4
:100350001E4F4FF4007690F90000002813DD21684D
:1003600081421FD24021284600F089F91EE0E8DAD8
:10037000236852429342E4D200F07FF901212846DB
:1003800000F07DF9E3E70DDA21684042814209D2AD
:100390004021284600F071F931463846BDE8F04169
:1003A00000F06DB94021284600F067F93146384623
:1003B000BDE8F04100F061B90014014005000020E3
:1003C0000010014000000020060000200020014035
:1003D0000349282008700349002008707047000076
:1003E000050000200600002003491420087003497E
:1003F0000020087070470000050000200600002063
:100400000449002008700449087004490870044930
:10041000087070470400002005000020060000203E
:1004200007000020704710B5044602E08C2000F061
:1004300005F8641EE4B2F9D210BD000031B50C4DD0
:100440000098012184B2284600F05EFC214628462F
:1004500000F07AFC03E0284600F060FC0446012C22
:10046000F9D82846BDE83840002100F04DBC000016
:100470000004004000EBC0014FF0E0204161016941
:1004800041F0010101610169C903FCD5002101614D
:100490008161704700B502464FF47A7302E0184656
:1004A000FFF7E8FF521EFAD200BD10B54FF480648A
:1004B000204600F011F8002806D0204600F006F88B
:1004C000BDE8104000F018B910BD000001490860F7
:1004D0007047000014040140064A014600201268DB
:1004E000044B0A4014331B680B4202D0002A00D090
:1004F000012070470004014030B51A4A8379016831
:1005000053B313688B431360111D0B680468A34336
:100510000B60017911440B68046823430B60114B95
:10052000083319680468A14319601C1D2168056817
:10053000A94321604179102905D011440A68006857
:1005400002430A6030BD19680268114319602168CE
:1005500000680143216030BD0079104402688A437D
:10056000026030BD0004014010B50121042000F0FC
:10057000CFFA0121082000F0CBFA0121102000F071
:10058000C7FA0121202000F0C3FA0121402000F029
:10059000BFFA0121802000F0BBFA0121BDE8104024
:1005A000080200F0B5BA000010B58A0721F0030474
:1005B0000649120F21440F238C6893409C438C60A2
:1005C0008B68904003438B6010BD00000000014029
:1005D000F0B5CC78002204F00F03E40601D58C7846
:1005E00023430C784FF00F0C14F0FF0F4FF0010E67
:1005F0001BD005680E880EFA02F42640A64210D1E0
:1006000096000CFA06F725EA070703FA06F5CE78F6
:100610003D43282E02D0482E02D002E0446100E083
:100620000461521C082AE5D305600A88FF2A1CD9F8
:100630004468002202F108060EFA06F50E882E40E4
:10064000AE420ED196000CFA06F7BC4303FA06F749
:10065000CE783C43282E00D14561CE78482E00D17B
:100660000561521C082AE5D34460F0BD0246002013
:1006700092680A4200D001207047416170470161D1
:100680007047FEE77FB50121084600F041FA4FF4BC
:100690008064ADF80C4048208DF80F0003208DF8E1
:1006A0000E0003A91348FFF793FF0A210320FFF769
:1006B0007BFF0C2000948DF8050000248DF8044089
:1006C00001258DF806506846FFF716FF4FF4E060ED
:1006D00000F006FA28208DF808008DF809408DF802
:1006E0000A408DF80B5002A800F0C8F900F07CFB1E
:1006F0007FBD0000001401402DE9F04700240F20C9
:10070000FFF791FE3A4E4FF4806739463046FFF7C7
:10071000ADFF012865D037492820087002E001208C
:10072000FFF781FE39463046FFF7A0FF0028F6D0DC
:10073000DFF8C4900025B046002602E00120FFF754
:1007400072FE39464046FFF791FF0028F6D102E0DD
:100750000120FFF768FE39464046FFF787FF002873
:10076000F6D006E00120FFF75EFE641CE4B21E2C0A
:1007700037D239464046FFF779FF0028F2D119F801
:1007800005004946400809F80500082C03D340F04D
:10079000800009F80500761C0024F6B2082ED0D39C
:1007A0006D1CEDB2042DC7D3C97899F80200C94376
:1007B000C9B2884215D11149432816D005DC152845
:1007C00009D040280DD1492006E044280BD0462806
:1007D00007D1412000E04220087007490120491E4E
:1007E0000870BDE8F0874320F6E74420F4E70000F6
:1007F000001401401200002014000020110000200D
:1008000010B500F017F86420FFF744FE382000F020
:1008100061F80C2000F05EF8062000F05BF8012083
:1008200000F058F86420FFF735FEBDE81040802046
:1008300000F050B8F8B54FF40050ADF800001025A6
:10084000154E8DF8035003248DF80240694630465A
:10085000FFF7BEFEA802ADF800008DF803508DF83A
:10086000024069463046FFF7B3FEE802ADF80000EB
:100870008DF803508DF8024069463046FFF7A8FE18
:10088000FF20ADF800008DF803508DF80240694656
:100890000248FFF79DFEF8BD00100140001C01401A
:1008A00070B505460024802000F014F8285D00F0A3
:1008B00043F8641C64B2102CF8DBC02000F00AF886
:1008C0000024285D00F038F8641C64B2102CF8DBBA
:1008D00070BD000070B504461420FFF7CBFD14492D
:1008E0004FF47F020A600C60124C49142046FFF757
:1008F000C4FE4FF480412046FFF7BFFE4FF4004591
:1009000029462046FFF7B9FE0A20FFF7B3FD294626
:100910002046FFF7B4FE0A20FFF7ACFD294620462B
:10092000FFF7ABFEBDE870400A20FFF7A3BD000053
:10093000101C01400010014070B504461420FFF760
:1009400099FD14494FF47F020A600C60124C49145F
:100950002046FFF794FE4FF480412046FFF78DFEBE
:100960004FF4004529462046FFF787FE0A20FFF78F
:1009700081FD29462046FFF782FE0A20FFF77AFD17
:1009800029462046FFF779FEBDE870400A20FFF7B0
:1009900071BD0000101C014000100140F8B54FF47B
:1009A0000060ADF8000048240A4E8DF8034003258E
:1009B0008DF8025069463046FFF70AFEB014ADF8D4
:1009C00000008DF803408DF8025069463046FFF76D
:1009D000FFFDF8BD00080140FEE70000F8B54FF448
:1009E0000050ADF8000002208DF802001C4E1024CB
:1009F0008DF8034069463046FFF7EAFDE501ADF8A2
:100A0000005069463046FFF7E3FDADF800506946F7
:100A10001448FFF7DDFD0120134DADF800006946D5
:100A20002846FFF7D5FD4020ADF80000694628466E
:100A3000FFF7CEFD6001ADF8000069463046FFF7D4
:100A4000C7FDADF8004069462846FFF7C1FD042008
:100A5000ADF8000069462846FFF7BAFDF8BD000072
:100A600000200140001001400014014010B5FFF7C4
:100A7000B5FFBDE81040FFF7C3BC704730B50F238A
:100A8000C27801780125F2B1144A126801F1E0211F
:100A900002F4E062C2F5E062120AC2F10404D3403B
:100AA0004278A24084781C401443220181F800243B
:100AB000007800F01F018D404009800000F1E02027
:100AC000C0F8005130BD01F01F008540480980008A
:100AD00000F1E020C0F8805130BD00000CED00E0D6
:100AE0000249084302490860704700000000FA0507
:100AF0000CED00E070470000044A0029D16901D0E4
:100B0000014300E08143D1617047000000100240C2
:100B1000044A0029916901D0014300E081439161B9
:100B200070470000001002407047000038B54FF4D5
:100B30008054ADF8004010208DF803000320064DCE
:100B40008DF8020069462846FFF742FD21462846F7
:100B5000FFF795FD38BD0000001401400CB50022E0
:100B6000264800920192016841F4803101604FF4FF
:100B7000A063016801F4003101910099491C0091C2
:100B8000019911B900999942F3D10168890333D5CC
:100B9000012101911A490A6842F010020A600A68AC
:100BA00022F003020A600A6842F002020A60416809
:100BB000416041684160416841F480614160416841
:100BC00021F47C114160416841F4E8114160016801
:100BD00041F08071016001688901FCD5416821F014
:100BE00003014160416841F0020141604168C1F385
:100BF00081010229FAD10CBD01920CBD0010024006
:100C000000200240704700000C48016841F00101DB
:100C1000016041680A4A114041600168094A114077
:100C20000160016821F480210160416821F4FE0126
:100C300041604FF41F018160FFF790BF0010024038
:100C40000000FFF8FFFFF6FE10B501218C072046DB
:100C500000F066F800281BD00121204600F051F872
:100C60000C490878401CC0B208700A2810D3002331
:100C70000B700949094A0868401C08601468641C24
:100C80001460322800D30B60BDE81040FFF740BB72
:100C900010BD00001000002000000020080000200F
:100CA0007FB501210846FFF727FF6320ADF8040058
:100CB0004720ADF8000000244FF08045ADF8064015
:100CC000ADF802406946284600F040F80121284668
:100CD00000F017F801221146284600F02DF80121F6
:100CE000284600F011F81C208DF80C008DF80D40FE
:100CF00001208DF80E008DF80F0003A8FFF7BEFE4F
:100D00007FBDC943018270470029018802D041F0AC
:100D1000010101E021F0010101807047808C7047E2
:100D200002460020138A92890B4202EA010202D095
:100D3000002A00D001207047002A828901D00A438E
:100D400000E08A43828170478184704730B5028811
:100D50001B4C1C4DA0420DD0A8420BD0B0F1804FCF
:100D600008D0194B984205D0184B984202D0184B26
:100D7000984203D122F070034A881A43154B9842D7
:100D800006D0154B984203D022F44073CA881A4308
:100D900002808A8882850A880285A0420AD0A842F9
:100DA00008D00E4A904205D00D4A904202D00D4A1A
:100DB000904201D1097A01860121818230BD000073
:100DC000002C0140003401400004004000080040B5
:100DD000000C0040001000400014004000400140A2
:100DE00000440140004801400EB501210220FFF7F8
:100DF00083FE0120ADF804004720ADF8000010206C
:100E0000ADF8020069460248FFF7A0FF0EBD0000E2
:100E100000040040FEE7000038B54FF40044ADF890
:100E2000004010208DF803000320064D8DF80200CD
:100E300069462846FFF7CCFB21462846FFF71FFCF2
:100E400038BD0000002001402DE9F041DFF82C8082
:100E50000B4D064600244FF4805739464046FFF7B5
:100E600005FC29798842F8D039464046641CFFF7D2
:100E7000FDFB2871B442F0DBBDE8F08100080140C1
:100E8000180000202DE9F041DFF82C800B4D0646BC
:100E900000244FF4006739464046FFF7E7FB6979C5
:100EA0008842F8D039464046641CFFF7DFFB687182
:100EB000B442F0DBBDE8F0810008014018000020DA
:100EC0004FF0E020016921F004010161704700004A
:100ED000FFF7F6FFFFF748FBFFF79EFFFFF790FCD9
:100EE000FFF7D0FBFFF7DCFEFFF7C0FDFFF71EFEAC
:100EF000FFF754FD40F2DC50FFF7CCFAE548FFF76E
:100F0000CFFCFFF7CDF97820FFF79EFFFFF778FAC7
:100F10004FF4FA752846FFF7BDFAFFF771FAFFF7AD
:100F200057FA2920FFF7AEFFFFF76AFA2846FFF7C6
:100F3000B1FAFFF765FAFFF7B3F92320FFF784FF53
:100F4000FFF75EFAC820FFF7A5FAFFF759FAD14874
:100F50002238FFF7A5FCD04C04212046FFF786FB82
:100F60000128F9D1CB481138FFF79AFCFFF78CF92B
:100F70003720FFF769FFFFF743FA2846FFF78AFAA1
:100F8000FFF73EFAFFF7ACF94FF41670FFF782FA5D
:100F90004FF48077FFF7A4F90A20FFF77BFA394670
:100FA0002046FFF763FB01280BD010212046FFF7F6
:100FB0005DFB012805D040212046FFF757FB0128A3
:100FC000E8D1FFF71DFAA9462846FFF763FAFFF7B5
:100FD00017FAB048FFF764FCB04D4FF000084FF42B
:100FE0008C76C5F804800EE0FFF70AFA4FF4967A83
:100FF0005046FFF74FFAFFF703FAA6482238FFF7EB
:101000004FFCA74E3DE000F0BFF9696808446860F6
:1010100039462046FFF72AFB01280BD11021204634
:10102000FFF724FB012805D140212046FFF71EFBD6
:1010300001280FD010212046FFF718FB01281AD0F5
:1010400040212046FFF712FB012817D039462046E1
:10105000FFF70CFBFFF724F90120FFF71BFA00F064
:1010600093F96968084468600120FFF713FA68681B
:10107000B042C8DBB8E7FFF7ABF9EDE7FFF724F9BB
:10108000EAE704212046FFF7F1FA0128F9D180218F
:101090003046FFF7EBFA012867D080213046FFF792
:1010A000E5FA0028EDD17B483338FFF7F9FBC5F8A6
:1010B00004800BE0FFF7A4F95046FFF7EBF9FFF7C8
:1010C0009FF974482238FFF7EBFB35E000F05CF93C
:1010D00069680844686039462046FFF7C7FA012866
:1010E0000BD110212046FFF7C1FA012805D140217C
:1010F0002046FFF7BBFA01280FD010212046FFF74A
:10110000B5FA012812D040212046FFF7AFFA012896
:101110000FD039462046FFF7A9FAFFF7CBF8022097
:10112000FFF7B8F968683728D0DBC3E7FFF75CF949
:10113000F5E7FFF7E1F8F2E704212046FFF796FA1A
:101140000128F9D180213046FFF790FA01280CD010
:1011500080213046FFF78AFA0028EDD14D48333818
:10116000FFF79EFBC5F804800DE000F09BF8FFF749
:1011700047F95046FFF78EF9FFF742F94548223804
:10118000FFF78EFB35E000F0FFF8696808446860FF
:1011900039462046FFF76AFA01280BD11021204674
:1011A000FFF764FA012805D140212046FFF75EFAD7
:1011B00001280FD010212046FFF758FA012812D03D
:1011C00040212046FFF752FA01280FD03946204629
:1011D000FFF74CFAFFF76EF80220FFF75BF968683B
:1011E0003728D0DBC3E7FFF7FFF8F5E7FFF784F810
:1011F000F2E704212046FFF739FA0128F9D18021CE
:101200003046FFF733FA012815D080213046FFF72A
:101210002DFA0028EDD11F483338FFF741FBFFF7C7
:101220003FF83C20FFF710FEFFF7EAF81948553861
:10123000FFF736FBFEE717484438FFF731FBFFF7AF
:10124000D3F84846C5F80080FFF724F940F2E2469B
:1012500008E039462046FFF709FA012805D00A20A0
:10126000FFF718F92868B042F3D9FFF7C9F84846E4
:10127000FFF710F9FFF7C4F8FFF71CF84FF496607A
:10128000FFF708F9FFF7BCF802485538FFF708FBED
:10129000FEE70000111400080020014008000020B3
:1012A000001001403548FFF7FBFAFFF79DF84FF4B7
:1012B0004870FFF7EFF84FF48075314CFFF794F862
:1012C00029462046FFF7D2F901280BD010212046ED
:1012D000FFF7CCF9012805D040212046FFF7C6F9D9
:1012E0000128EBD1FFF78CF84FF4FA70FFF7D2F832
:1012F000FFF786F8FEF7DEFF0A20FFF7CBF8214E56
:10130000002040F22627306006E0FFF779F81B48FE
:101310001138FFF7C5FAFEE729462046FFF7A6F980
:1013200001280BD110212046FFF7A0F9012805D193
:1013300040212046FFF79AF90128E6D010212046E7
:10134000FFF794F9012812D040212046FFF78EF9CB
:1013500001280FD029462046FFF788F9FEF7A0FFA5
:101360000A20FFF797F83068B842D5D3CDE7FFF7EA
:101370002FF8F5E7FEF7A8FFF2E70000CD1300080D
:10138000002001400800002070B50A4E4FF480553F
:1013900029463046FFF76AF9074C2179884206D082
:1013A00029463046FFF762F92071012070BD002008
:1013B00070BD000000080140180000204D49535343
:1013C000494F4E20434F4D504C4554450056202028
:1013D0004944204D41544348454420202000582092
:1013E000204944204D49534D414348454420002065
:1013F00020202057414954494E47202020202000DA
:1014000020202020494420464F554E4420202020B3
:1014100000202020202052554E4E494E47202020AB
:1014200020000000441400080000002020000000FC
:101430006C01000864140008200000206006000011
:10144000880100080000000028282828000000006B
:101450000000000000490000000000000000000043
:041460000000000088
:0400000508000131BD
:00000001FF
